:100000000C9463000C948B000C948B000C940F04E4
:100010000C940F040C940F040C948B000C948B0024
:100020000C948B000C948B000C948B000C948B0024
:100030000C948B000C948B000C948B000C948B0014
:100040000C94C5030C948B000C9493030C946D03D7
:100050000C948B000C948B000C948B000C948B00F4
:100060000C948B000C948B000000000024002700EF
:100070002A0000000008000201000003040700003D
:1000800000000000000000000000230026002900FE
:1000900000000000250028002B00040404040404D0
:1000A0000404020202020202030303030303010227
:1000B00004081020408001020408102001020408F6
:1000C00010208704730811241FBECFEFD8E0DEBFD5
:1000D000CDBF13E0A0E0B1E0EAE9F2E102C0059093
:1000E0000D92A233B107D9F724E0A2E3B3E001C037
:1000F0001D92A135B207E1F710E0C2E6D0E004C0DE
:100100002197FE010E942B09C136D107C9F70E9431
:1001100032050C9440090C940000AF92BF92CF922C
:10012000DF92EF92FF920F931F93CF93DF936C01B7
:100130007B018B01040F151FEB015E01AE18BF0898
:10014000C017D10759F06991D601ED91FC9101904A
:10015000F081E02DC6010995892B79F7C501DF9162
:10016000CF911F910F91FF90EF90DF90CF90BF90B4
:10017000AF900895FC01538D448D252F30E0842FDE
:1001800090E0821B930B541710F0CF9608950197BF
:100190000895FC01918D828D981761F0A28DAE0FAC
:1001A000BF2FB11D5D968C91928D9F5F9F73928F33
:1001B00090E008958FEF9FEF0895FC01918D828D5F
:1001C000981731F0828DE80FF11D858D90E008952C
:1001D0008FEF9FEF0895FC01918D228D892F90E084
:1001E000805C9F4F821B91098F739927089585E941
:1001F00093E00E94EB0021E0892B09F420E0822F9C
:10020000089580E090E0892B29F00E94F700811189
:100210000C9400000895FC01A48DA80FB92FB11D06
:10022000A35ABF4F2C91848D90E001968F7399272C
:10023000848FA689B7892C93A089B1898C9183700A
:1002400080648C93938D848D981306C00288F38903
:10025000E02D80818F7D80830895EF92FF920F9330
:100260001F93CF93DF93EC0181E0888F9B8D8C8D62
:1002700098131AC0E889F989808185FF15C09FB756
:10028000F894EE89FF896083E889F9898081837019
:10029000806480839FBF81E090E0DF91CF911F91C8
:1002A0000F91FF90EF900895F62E0B8D10E00F5FE9
:1002B0001F4F0F731127E02E8C8D8E110CC00FB6BF
:1002C00007FCFACFE889F989808185FFF5CFCE0157
:1002D0000E940B01F1CFEB8DEC0FFD2FF11DE35AC6
:1002E000FF4FF0829FB7F8940B8FEA89FB898081DA
:1002F0008062CFCFCF93DF93EC01888D8823B9F054
:10030000AA89BB89E889F9898C9185FD03C0808120
:1003100086FD0DC00FB607FCF7CF8C9185FFF2CF9D
:10032000808185FFEDCFCE010E940B01E9CFDF91E7
:10033000CF910895833081F028F4813099F0823094
:10034000A9F008958730A9F08830C9F08430B1F45D
:10035000809180008F7D03C0809180008F77809393
:100360008000089584B58F7784BD089584B58F7D0E
:10037000FBCF8091B0008F778093B000089580917B
:10038000B0008F7DF9CFCF93DF93282F30E0F901B4
:10039000EE58FF4F8491F901E255FF4FD491F901D6
:1003A000E656FF4FC491CC23A1F081110E949A011F
:1003B000EC2FF0E0EE0FFF1FEA57FF4FA591B4912D
:1003C000EC91ED2381E090E009F480E0DF91CF91A2
:1003D000089580E090E0FACF1F93CF93DF93282F0A
:1003E00030E0F901EE58FF4F8491F901E255FF4FDB
:1003F000D491F901E656FF4FC491CC23A9F0162FF2
:1004000081110E949A01EC2FF0E0EE0FFF1FE057E0
:10041000FF4FA591B4918FB7F894EC91111108C0DA
:10042000D095DE23DC938FBFDF91CF911F9108958C
:10043000DE2BF8CFCF93DF9390E0FC01E255FF4F26
:10044000249186569F4FFC0184918823D1F090E03F
:10045000880F991FFC01E859FF4FA591B491FC0149
:10046000E057FF4FC591D49161110EC09FB7F8942A
:100470008C91E22FE0958E238C932881E223E883F0
:100480009FBFDF91CF9108958FB7F894EC91E22B45
:10049000EC938FBFF6CF3FB7F8948091770390919C
:1004A0007803A0917903B0917A0326B5A89B05C083
:1004B0002F3F19F00196A11DB11D3FBFBA2FA92FE3
:1004C000982F8827BC01CD01620F711D811D911DE0
:1004D00042E0660F771F881F991F4A95D1F708954C
:1004E0008F929F92AF92BF92CF92DF92EF92FF9244
:1004F0004B015C010E944B026B017C010E944B028C
:100500006C197D098E099F09683E7340810591052C
:10051000A8F321E0821A9108A108B10888EEC80E5C
:1005200083E0D81EE11CF11C81149104A104B104E4
:1005300029F7FF90EF90DF90CF90BF90AF909F9002
:100540008F90089520917D0330917E0328173907FD
:1005500071F490917B0380917C03981741F0E091B6
:100560007B03F0E0EE5CFC4F808190E008958FEF1C
:100570009FEF08950895EF92FF920F931F93CF93EB
:10058000DF93DC015C96ED90FC905D97E114F10443
:1005900079F481E090E013969C938E93129790E00B
:1005A00080E0DF91CF911F910F91FF90EF90089520
:1005B0005196ED91FC91529750968C915097982FAF
:1005C00090950FB75E962C915E97122F127021FDB9
:1005D0006095F8942081112319F1282B2083E701DD
:1005E0002197F1F728E0462F50E0308160FF1AC0D4
:1005F000382B3083E7012197F1F7BA01759567959C
:10060000215089F7112381F08081892380830FBFD6
:100610005C968D919C910197F1F781E090E0C1CFBC
:100620002923DCCF3923E5CF9081892BEFCF20918F
:100630007D0330917E032817390761F480917C0394
:1006400020917B0390E0805C9F4F821B91098F7308
:100650009927089590E080E0089520917D033091DE
:100660007E0328173907B9F490917B0380917C03AE
:10067000981789F0E0917B03F0E0EE5CFC4F8081FD
:1006800020917B0330E02F5F3F4F2F733327209360
:100690007B0390E008958FEF9FEF089590E080E056
:1006A0000895CF93DF93EC0182E00E94C30128817B
:1006B0002695892B09F420682883DF91CF9108952E
:1006C000FC0101900020E9F73197AF01481B590B5D
:1006D000BC0182E394E00C948D001F920F920FB640
:1006E0000F9211242F933F934F935F936F937F93B8
:1006F0008F939F93AF93BF93EF93FF9385E993E01D
:100700000E940B01FF91EF91BF91AF919F918F914B
:100710007F916F915F914F913F912F910F900FBEFD
:100720000F901F9018951F920F920FB60F921124E1
:100730002F938F939F93EF93FF93E091A503F091F5
:10074000A6038081E091AB03F091AC0382FD1BC056
:1007500090818091AE038F5F8F732091AF038217DA
:1007600041F0E091AE03F0E0EB56FC4F958F8093A3
:10077000AE03FF91EF919F918F912F910F900FBE3C
:100780000F901F9018958081F4CF1F920F920FB693
:100790000F9211242F933F938F939F93AF93BF9307
:1007A0008091730390917403A0917503B0917603C7
:1007B0003091720323E0230F2D3758F50196A11DC8
:1007C000B11D209372038093730390937403A093DD
:1007D0007503B09376038091770390917803A0918D
:1007E0007903B0917A030196A11DB11D809377031F
:1007F00090937803A0937903B0937A03BF91AF915C
:100800009F918F913F912F910F900FBE0F901F904E
:10081000189526E8230F0296A11DB11DD2CF1F9275
:100820000F920FB60F9211242F933F934F935F9324
:100830006F937F938F939F93AF93BF93EF93FF93A8
:10084000E0917D03F0917E03309749F0A685B7854E
:100850008585968D91FF14C09C918923A1F4FF9109
:10086000EF91BF91AF919F918F917F916F915F9128
:100870004F913F912F910F900FBE0F901F901895A1
:100880009C91892361F7A389B4899C91858980957E
:1008900089238C93868997890197F1F7608D718DF3
:1008A000A685B785558538E020E0CB010197F1F7A3
:1008B000822F90E095958795282F4C91452309F03C
:1008C0002068315091F7868D81FD209580917C03C1
:1008D00090E001968F73992730917B03381799F038
:1008E000A0917C03B0E0AE5CBC4F2C9380937C0362
:1008F000828D938D0197F1F7A389B4898C919589A5
:10090000892B8C93ACCF868D8160868FF1CF10922E
:1009100098031092970388EE93E0A0E0B0E08093F4
:10092000990390939A03A0939B03B0939C0324E0B4
:1009300033E0309396032093950325EC30E0309319
:10094000A2032093A10324EC30E03093A40320936E
:10095000A30320EC30E03093A6032093A50321EC01
:1009600030E03093A8032093A70322EC30E03093CB
:10097000AA032093A90326EC30E03093AC03209324
:10098000AB031092AE031092AF031092B00310921B
:10099000B10310923504109234048093360490937E
:1009A0003704A0933804B093390486E193E0909320
:1009B0003304809332041092490410924804109238
:1009C0004B0410924A0410924D0410924C04109261
:1009D0004F0410924E04609150046E7F6D7F6093BF
:1009E00050046695617081E068278BE00E94EC01FD
:1009F00061E08BE00E941A02E9EBF0E0E491E09301
:100A00004204E5EAF0E0E491F0E0EE0FFF1FE0576A
:100A1000FF4F85919491909344048093430460E048
:100A20008AE00E941A028091500481FD04C061E0B6
:100A30008AE00E94EC018AE080933E04E8EBF0E05B
:100A4000E491E0933F04E4EAF0E0E491F0E0EE0F9B
:100A5000FF1FEA57FF4F8591949190934104809333
:100A600040040895CF93DF93CDB7DEB7AB970FB6B1
:100A7000F894DEBF0FBECDBF789484B5826084BD8C
:100A800084B5816084BD85B5826085BD85B5816092
:100A900085BD80916E00816080936E001092810010
:100AA00080918100826080938100809181008160CB
:100AB000809381008091800081608093800080918C
:100AC000B10084608093B1008091B0008160809318
:100AD000B00080917A00846080937A0080917A00DF
:100AE000826080937A0080917A00816080937A009E
:100AF00080917A00806880937A001092C100E09122
:100B0000A503F091A60382E08083E091A103F09118
:100B1000A2031082E091A303F091A4038FEC8083E1
:100B20001092AD03E091A903F091AA0386E08083BF
:100B3000E091A703F091A803808180618083E09118
:100B4000A703F091A803808188608083E091A703C8
:100B5000F091A803808180688083E091A703F091E1
:100B6000A80380818F7D808310924D0410924C04E5
:100B700010924B0410924A041092490410924804B7
:100B80008DE991E090934F0480934E0490913E0440
:100B9000963108F047C02DEB30E0309349042093A4
:100BA00048042BE931E030934B0420934A042CE2B3
:100BB00031E030934D0420934C042091680084E090
:100BC000983048F031E09E3008F430E081E001C018
:100BD000880F3A95EAF7822B809368002DE630E083
:100BE000983050F02BE630E09E3030F02CE630E0CC
:100BF000963110F030E020E0309346042093450415
:100C0000292F30E0983008F0CCC081E001C0880F77
:100C10009A95EAF78093470480914E0490914F048F
:100C20000197F1F780914C0490914D04892B49F183
:100C3000E0917D03F0917E0344E0E233F40709F193
:100C4000309739F0A389B4899C918589809589234F
:100C50008C93809150048E7F8093500410927C037B
:100C600010927B0382E394E090937E0380937D0354
:100C7000E0914504F0914604808190914704892BCE
:100C8000808361E085E00E941A0264EF71E080E0F9
:100C900090E00E94700260E082E00E941A0261E02F
:100CA00085E00E94EC0161E08DE00E941A0261E0A3
:100CB0008EE00E941A0261E08EE00E94EC012BE6B9
:100CC000222E332433948EE00E94C30161E0892BED
:100CD00009F060E08EE00E94EC0168EC70E080E0DA
:100CE00090E00E94700260E08DE00E94EC0168ECF0
:100CF00070E080E090E00E9470021AA21BA21CA289
:100D00001DA21EA21FA218A619A661E085E00E94DE
:100D1000EC0183EC90E00197F1F761E085E00E943F
:100D2000EC018BE39FE10197F1F760E085E00E9421
:100D3000EC0183E692E20197F1F761E085E00E9421
:100D4000EC0118E09BEFE92EFF24F39461E085E0CD
:100D50000E94EC01C7010197F1F71150B9F761E06A
:100D600085E00E94EC0162E370E080E090E00E9488
:100D7000700260E085E00E94EC0100E513EC82E087
:100D80000E94C301892B09F067C001501109B9F70E
:100D900084E293E00E9460038EE293E00E9460038D
:100DA00095C19E3040F42850310981E001C0880F80
:100DB0002A95EAF72FCF2E503109F7CF80917F0384
:100DC00090918003A0918103B09182030196A11DAF
:100DD000B11D80937F0390938003A0938103B09310
:100DE0008203A501940130564B42514B19A28E014A
:100DF0000F5D1F4FCA01B9012AE030E040E050E02A
:100E00000E948F08605DF80162938F012115310502
:100E10004105510579F7309719F0CF010E94600321
:100E20008EE293E00E94600361E08DE00E94EC019D
:100E300005E610E06EE785E993E00E942D0148E0A9
:100E400050E0BE016E5D7F4F85E993E00E948D000A
:100E50000150110979F73AC1C1010197F1F787E80B
:100E600093E00E94510307E010E0C1010197F1F700
:100E700087E893E00E94510301501109B1F7C101C5
:100E80000197F1F701E010E080E1E82E87E2F82E0B
:100E900082E00E94C301892B29F481E0E81AF1085D
:100EA000B9F776CFC1010197F1F7C80189579C4F77
:100EB0007C010E94510387E0C82ED12C8BEE90E07C
:100EC0000197F1F7C7010E94510391E0C91AD108B7
:100ED000A9F78BE891E00197F1F70F5F1F4F0E30F4
:100EE000110591F6E0918C032091890330E040E0F8
:100EF00050E060E070E080E090E008E00E940909C6
:100F0000522E632E742E852E962EB72FA82FF92FD2
:100F100020918A0330E040E050E060E070E080E043
:100F200090E000E10E94090959016A017B018C01EE
:100F3000252D362D472D582D692D7B2F8A2F9F2F3C
:100F40000E942209522E632E742E852E962EB72FC4
:100F5000A82FF92F20918B0330E040E050E060E0B3
:100F600070E080E090E008E10E94090959016A01FF
:100F70007B018C01252D362D472D582D692D7B2F7A
:100F80008A2F9F2F0E942209522E632E742E852EA7
:100F9000962EB72FA82FF92F2E2F2F7330E040E079
:100FA00050E060E070E080E090E000E20E9409091B
:100FB00059016A017B018C01252D362D472D582DB5
:100FC000692D7B2F8A2F9F2F0E942209A0908803D2
:100FD000B12CC12CD12CE12CF12C00E010E00E94AE
:100FE00022092AA73BA72A013B014C0140918D030E
:100FF00050E0440F551FE1114160440F551F80918F
:101000008E0381114160A12C70E1B72EE5EACE2E4E
:10101000F4EDDF2EA8EEEA2EF12C00E010E09A01AC
:1010200040E050E060E070E080E090E00E94B108B5
:10103000AAA4BBA46201730184010E942209490190
:101040005A016B017C012AA39BA24CA3BDA26EA3F3
:10105000DFA288A7F9A62091900330E0322F222743
:1010600080919103280F311D90E080E0E8E8F3E0E3
:10107000492F55276191DC01A627BB27AA0FBB1F6B
:10108000A050BF4F8D919C918427952743E0E03974
:10109000F40771F79827892798272817390719F433
:1010A000232B09F08BCE8091830390918403A09130
:1010B0008503B09186030196A11DB11D8093830322
:1010C00090938403A0938503B093860380E090E01F
:1010D000892B09F4F8CD0E94F700882309F4F3CD99
:1010E0000E940000F0CD86E193E09093330480935A
:1010F000320480917D0390917E038253944071F479
:10110000E0914504F09146049081809147048095D8
:101110008923808310927E0310927D030895A1E2BB
:101120001A2EAA1BBB1BFD010DC0AA1FBB1FEE1F61
:10113000FF1FA217B307E407F50720F0A21BB30BAC
:10114000E40BF50B661F771F881F991F1A9469F728
:1011500060957095809590959B01AC01BD01CF0184
:101160000895DF93CF931F930F939A9DF02D219FA6
:10117000F00D8B9DF00D8A9DE02DF10D039FF00D7C
:10118000029FE00DF11D4E9DE00DF11D5E9DF00DE5
:101190004F9DF00D7F936F93BF92AF925F934F93EC
:1011A000D5010E9431098B01AC01D7010E943109A0
:1011B000EB01E80FF91FD6010E9400092F913F9122
:1011C000D6010E943109C60FD71FE81FF91FAF9142
:1011D000BF910E9400092F913F910E943109C60FD3
:1011E000D71FE81FF91FD6010E943109E60FF71F2C
:1011F0009801BE01CF010F911F91CF91DF9108950A
:101200000E943109460F571FC81FD91F08F4319695
:101210000895002E083090F0982F872F762F652F95
:10122000542F432F322F22270850F4CF220F331F81
:10123000441F551F661F771F881F991F0A95B2F715
:10124000002D08952A0D3B1D4C1D5D1D6E1D7F1D3B
:10125000801F911F0895EE0FFF1F0590F491E02D60
:101260000994A29FB001B39FC001A39F700D811D7F
:101270001124911DB29F700D811D1124911D08959F
:1012800010E0C2E6D0E004C0FE010E942B092196C6
:0A129000C336D107C9F7F894FFCF69
:10129A000000891112239B322446AD573665BF746C
:1012AA00488CC19D5AAFD3BE6CCAE5DB7EE9F7F81C
:1012BA008110080193331A22A5562C47B7753E644C
:1012CA00C99C408DDBBF52AEEDDA64CBFFF976E8FC
:1012DA0002218B30100299132667AF763444BD552C
:1012EA004AADC3BC588ED19F6EEBE7FA7CC8F5D9DC
:1012FA0083310A2091121803A7772E66B5543C450C
:10130A00CBBD42ACD99E508FEFFB66EAFDD874C9BB
:10131A0004428D5316619F702004A9153227BB36EB
:10132A004CCEC5DF5EEDD7FC6888E1997AABF3BA9B
:10133A0085520C4397711E60A1142805B3373A26CB
:10134A00CDDE44CFDFFD56ECE9986089FBBB72AA7B
:10135A0006638F7214409D512225AB343006B917AB
:10136A004EEFC7FE5CCCD5DD6AA9E3B8788AF19B5B
:10137A0087730E6295501C41A3352A24B11638078B
:10138A00CFFF46EEDDDC54CDEBB962A8F99A708B3B
:10139A00088481951AA793B62CC2A5D33EE1B7F06B
:1013AA004008C919522BDB3A644EED5F766DFF7C1B
:1013BA00899400859BB712A6ADD224C3BFF136E04B
:1013CA00C1184809D33B5A2AE55E6C4FF77D7E6CFB
:1013DA000AA583B4188691972EE3A7F23CC0B5D12B
:1013EA004229CB38500AD91B666FEF7E744CFD5DDB
:1013FA008BB502A499961087AFF326E2BDD034C10B
:10140A00C3394A28D11A580BE77F6E6EF55C7C4DBA
:10141A000CC685D71EE597F42880A1913AA3B3B2EA
:10142A00444ACD5B5669DF78600CE91D722FFB3E9A
:10143A008DD604C79FF516E4A9902081BBB332A2CA
:10144A00C55A4C4BD7795E68E11C680DF33F7A2E7A
:10145A000EE787F61CC495D52AA1A3B03882B193AA
:10146A00466BCF7A5448DD59622DEB3C700EF91F5A
:10147A008FF706E69DD414C5ABB122A0B99230838A
:10148A00C77B4E6AD5585C49E33D6A2CF11E780F3A
:10149A00000000002D018D00BA007A01EB00C9009E
:1014AA00DD0000000000BB028D004E03BA021703E4
:1014BA002D03A20254494D455F4F55540A000D0AA7
:0214CA00000020
:00000001FF
